{
  "_format": "hh-sol-artifact-1",
  "contractName": "LiquidityExamples",
  "sourceName": "contracts/LiquidityExamples.sol",
  "abi": [
    {
      "inputs": [],
      "name": "DAI",
      "outputs": [
        {
          "internalType": "address",
          "name": "",
          "type": "address"
        }
      ],
      "stateMutability": "view",
      "type": "function"
    },
    {
      "inputs": [],
      "name": "USDC",
      "outputs": [
        {
          "internalType": "address",
          "name": "",
          "type": "address"
        }
      ],
      "stateMutability": "view",
      "type": "function"
    },
    {
      "inputs": [],
      "name": "collectAllFees",
      "outputs": [
        {
          "internalType": "uint256",
          "name": "amount0",
          "type": "uint256"
        },
        {
          "internalType": "uint256",
          "name": "amount1",
          "type": "uint256"
        }
      ],
      "stateMutability": "nonpayable",
      "type": "function"
    },
    {
      "inputs": [
        {
          "internalType": "uint256",
          "name": "_tokenId",
          "type": "uint256"
        },
        {
          "internalType": "uint128",
          "name": "liquidity",
          "type": "uint128"
        }
      ],
      "name": "decreaseLiquidity",
      "outputs": [
        {
          "internalType": "uint256",
          "name": "amount0",
          "type": "uint256"
        },
        {
          "internalType": "uint256",
          "name": "amount1",
          "type": "uint256"
        }
      ],
      "stateMutability": "nonpayable",
      "type": "function"
    },
    {
      "inputs": [
        {
          "internalType": "uint256",
          "name": "",
          "type": "uint256"
        }
      ],
      "name": "deposits",
      "outputs": [
        {
          "internalType": "address",
          "name": "owner",
          "type": "address"
        },
        {
          "internalType": "uint128",
          "name": "liquidity",
          "type": "uint128"
        },
        {
          "internalType": "address",
          "name": "token0",
          "type": "address"
        },
        {
          "internalType": "address",
          "name": "token1",
          "type": "address"
        }
      ],
      "stateMutability": "view",
      "type": "function"
    },
    {
      "inputs": [
        {
          "internalType": "uint256",
          "name": "_tokenId",
          "type": "uint256"
        }
      ],
      "name": "getLiquidity",
      "outputs": [
        {
          "internalType": "uint128",
          "name": "",
          "type": "uint128"
        }
      ],
      "stateMutability": "view",
      "type": "function"
    },
    {
      "inputs": [
        {
          "internalType": "uint256",
          "name": "_tokenId",
          "type": "uint256"
        },
        {
          "internalType": "uint256",
          "name": "amountAdd0",
          "type": "uint256"
        },
        {
          "internalType": "uint256",
          "name": "amountAdd1",
          "type": "uint256"
        }
      ],
      "name": "increaseLiquidityCurrentRange",
      "outputs": [
        {
          "internalType": "uint128",
          "name": "liquidity",
          "type": "uint128"
        },
        {
          "internalType": "uint256",
          "name": "amount0",
          "type": "uint256"
        },
        {
          "internalType": "uint256",
          "name": "amount1",
          "type": "uint256"
        }
      ],
      "stateMutability": "payable",
      "type": "function"
    },
    {
      "inputs": [],
      "name": "mintNewPosition",
      "outputs": [
        {
          "internalType": "uint256",
          "name": "_tokenId",
          "type": "uint256"
        },
        {
          "internalType": "uint128",
          "name": "liquidity",
          "type": "uint128"
        },
        {
          "internalType": "uint256",
          "name": "amount0",
          "type": "uint256"
        },
        {
          "internalType": "uint256",
          "name": "amount1",
          "type": "uint256"
        }
      ],
      "stateMutability": "nonpayable",
      "type": "function"
    },
    {
      "inputs": [],
      "name": "nonfungiblePositionManager",
      "outputs": [
        {
          "internalType": "contract INonfungiblePositionManager",
          "name": "",
          "type": "address"
        }
      ],
      "stateMutability": "view",
      "type": "function"
    },
    {
      "inputs": [
        {
          "internalType": "address",
          "name": "operator",
          "type": "address"
        },
        {
          "internalType": "address",
          "name": "",
          "type": "address"
        },
        {
          "internalType": "uint256",
          "name": "_tokenId",
          "type": "uint256"
        },
        {
          "internalType": "bytes",
          "name": "",
          "type": "bytes"
        }
      ],
      "name": "onERC721Received",
      "outputs": [
        {
          "internalType": "bytes4",
          "name": "",
          "type": "bytes4"
        }
      ],
      "stateMutability": "nonpayable",
      "type": "function"
    },
    {
      "inputs": [],
      "name": "poolFee",
      "outputs": [
        {
          "internalType": "uint24",
          "name": "",
          "type": "uint24"
        }
      ],
      "stateMutability": "view",
      "type": "function"
    },
    {
      "inputs": [],
      "name": "tokenId",
      "outputs": [
        {
          "internalType": "uint256",
          "name": "",
          "type": "uint256"
        }
      ],
      "stateMutability": "view",
      "type": "function"
    }
  ],
  "bytecode": "0x6080604052600080546001600160a01b03191673c36442b4a4522e871399cd717abdd847ab11fe8817905534801561003657600080fd5b5061160c806100466000396000f3fe6080604052600436106100c75760003560e01c806389a3027111610074578063b02c43d01161004e578063b02c43d01461021f578063b44a27221461024f578063e0bab4c414610264576100c7565b806389a30271146101b0578063951583c3146101d257806399d7b594146101ff576100c7565b8063306d9c61116100a5578063306d9c6114610146578063617d6d6e1461016b578063686f2c901461018d576100c7565b8063089fe6aa146100cc578063150b7a02146100f757806317d70f7c14610124575b600080fd5b3480156100d857600080fd5b506100e1610279565b6040516100ee919061155e565b60405180910390f35b34801561010357600080fd5b5061011761011236600461102d565b61027f565b6040516100ee9190611316565b34801561013057600080fd5b506101396102b6565b6040516100ee919061156e565b34801561015257600080fd5b5061015b6102bc565b6040516100ee9493929190611577565b61017e6101793660046111a4565b610518565b6040516100ee9392919061153d565b34801561019957600080fd5b506101a26106f6565b6040516100ee92919061159b565b3480156101bc57600080fd5b506101c56107c7565b6040516100ee91906112ce565b3480156101de57600080fd5b506101f26101ed3660046110fd565b6107df565b6040516100ee9190611529565b34801561020b57600080fd5b506101a261021a366004611115565b610876565b34801561022b57600080fd5b5061023f61023a3660046110fd565b610950565b6040516100ee94939291906112e2565b34801561025b57600080fd5b506101c5610991565b34801561027057600080fd5b506101c56109a0565b610bb881565b600061028b86856109b8565b507f150b7a020000000000000000000000000000000000000000000000000000000095945050505050565b60025481565b60008054819081908190689449b794121ac70000906509184e72a000906103029073fd434944ab01eee420f39c9b01945a99c4554346906001600160a01b031684610b6a565b60005461032e9073b4fbf271143f4fbf7b91a5ded31805e42b2208d6906001600160a01b031683610b6a565b604080516101608101825273fd434944ab01eee420f39c9b01945a99c4554346815273b4fbf271143f4fbf7b91a5ded31805e42b2208d66020820152610bb881830152620d89e7196060820152620d89e8608082015260a0810184905260c08101839052600060e08201819052610100820181905230610120830152426101408301525491517f8831645600000000000000000000000000000000000000000000000000000000815290916001600160a01b0316906388316456906103f790849060040161147b565b608060405180830381600087803b15801561041157600080fd5b505af1158015610425573d6000803e3d6000fd5b505050506040513d601f19601f820116820180604052508101906104499190611144565b9299509097509550935061045d33886109b8565b828510156104b657600080546104929173fd434944ab01eee420f39c9b01945a99c4554346916001600160a01b031690610b6a565b8483036104b473fd434944ab01eee420f39c9b01945a99c45543463383610cec565b505b8184101561050f57600080546104eb9173b4fbf271143f4fbf7b91a5ded31805e42b2208d6916001600160a01b031690610b6a565b83820361050d73b4fbf271143f4fbf7b91a5ded31805e42b2208d63383610cec565b505b50505090919293565b6000806000843410156105465760405162461bcd60e51b815260040161053d90611343565b60405180910390fd5b61056673fd434944ab01eee420f39c9b01945a99c4554346333087610e67565b6000546105929073fd434944ab01eee420f39c9b01945a99c4554346906001600160a01b031686610b6a565b6040805160c08101825287815260208101879052808201869052600060608201819052608082018190524260a08301525491517f219f5d1700000000000000000000000000000000000000000000000000000000815290916001600160a01b03169063219f5d1790349061060a908590600401611437565b6060604051808303818588803b15801561062357600080fd5b505af1158015610637573d6000803e3d6000fd5b50505050506040513d601f19601f8201168201806040525081019061065c91906110c7565b919550935091503486900380156106eb576000336001600160a01b031682604051610686906112cb565b60006040518083038185875af1925050503d80600081146106c3576040519150601f19603f3d011682016040523d82523d6000602084013e6106c8565b606091505b50509050806106e95760405162461bcd60e51b815260040161053d9061137a565b505b505093509350939050565b6040805160808101825260025481523060208201526001600160801b0381830181905260608201526000805492517ffc6f786500000000000000000000000000000000000000000000000000000000815290928392916001600160a01b039091169063fc6f78659061076c9084906004016113b1565b6040805180830381600087803b15801561078557600080fd5b505af1158015610799573d6000803e3d6000fd5b505050506040513d601f19601f820116820180604052508101906107bd9190611181565b9094909350915050565b73b4fbf271143f4fbf7b91a5ded31805e42b2208d681565b6000805460405163133f757160e31b815282916001600160a01b0316906399fbab889061081090869060040161156e565b6101806040518083038186803b15801561082957600080fd5b505afa15801561083d573d6000803e3d6000fd5b505050506040513d601f19601f8201168201806040525081019061086191906111cf565b50929b5050505050505050505050505b919050565b6040805160a0810182528381526001600160801b0383166020820152600081830181905260608201819052426080830152805492517f0c49ccbe00000000000000000000000000000000000000000000000000000000815290928392916001600160a01b0390911690630c49ccbe906108f39084906004016113f4565b6040805180830381600087803b15801561090c57600080fd5b505af1158015610920573d6000803e3d6000fd5b505050506040513d601f19601f820116820180604052508101906109449190611181565b90969095509350505050565b600160208190526000918252604090912080549181015460028201546003909201546001600160a01b03938416936001600160801b03909216928216911684565b6000546001600160a01b031681565b73fd434944ab01eee420f39c9b01945a99c455434681565b6000805460405163133f757160e31b8152829182916001600160a01b03909116906399fbab88906109ed90879060040161156e565b6101806040518083038186803b158015610a0657600080fd5b505afa158015610a1a573d6000803e3d6000fd5b505050506040513d601f19601f82011682018060405250810190610a3e91906111cf565b5050505097505050509450945050506040518060800160405280866001600160a01b03168152602001826001600160801b03168152602001846001600160a01b03168152602001836001600160a01b03168152506001600086815260200190815260200160002060008201518160000160006101000a8154816001600160a01b0302191690836001600160a01b0316021790555060208201518160010160006101000a8154816001600160801b0302191690836001600160801b0316021790555060408201518160020160006101000a8154816001600160a01b0302191690836001600160a01b0316021790555060608201518160030160006101000a8154816001600160a01b0302191690836001600160a01b03160217905550905050836002819055505050505050565b604080516001600160a01b038481166024830152604480830185905283518084039091018152606490920183526020820180516001600160e01b03167f095ea7b3000000000000000000000000000000000000000000000000000000001781529251825160009485949389169392918291908083835b60208310610bff5780518252601f199092019160209182019101610be0565b6001836020036101000a0380198251168184511680821785525050505050509050019150506000604051808303816000865af19150503d8060008114610c61576040519150601f19603f3d011682016040523d82523d6000602084013e610c66565b606091505b5091509150818015610c94575080511580610c945750808060200190516020811015610c9157600080fd5b50515b610ce5576040805162461bcd60e51b815260206004820152600260248201527f5341000000000000000000000000000000000000000000000000000000000000604482015290519081900360640190fd5b5050505050565b604080516001600160a01b038481166024830152604480830185905283518084039091018152606490920183526020820180516001600160e01b03167fa9059cbb000000000000000000000000000000000000000000000000000000001781529251825160009485949389169392918291908083835b60208310610d815780518252601f199092019160209182019101610d62565b6001836020036101000a0380198251168184511680821785525050505050509050019150506000604051808303816000865af19150503d8060008114610de3576040519150601f19603f3d011682016040523d82523d6000602084013e610de8565b606091505b5091509150818015610e16575080511580610e165750808060200190516020811015610e1357600080fd5b50515b610ce5576040805162461bcd60e51b815260206004820152600260248201527f5354000000000000000000000000000000000000000000000000000000000000604482015290519081900360640190fd5b604080516001600160a01b0385811660248301528481166044830152606480830185905283518084039091018152608490920183526020820180516001600160e01b03167f23b872dd00000000000000000000000000000000000000000000000000000000178152925182516000948594938a169392918291908083835b60208310610f045780518252601f199092019160209182019101610ee5565b6001836020036101000a0380198251168184511680821785525050505050509050019150506000604051808303816000865af19150503d8060008114610f66576040519150601f19603f3d011682016040523d82523d6000602084013e610f6b565b606091505b5091509150818015610f99575080511580610f995750808060200190516020811015610f9657600080fd5b50515b610fea576040805162461bcd60e51b815260206004820152600360248201527f5354460000000000000000000000000000000000000000000000000000000000604482015290519081900360640190fd5b505050505050565b8051610871816115a9565b8051600281900b811461087157600080fd5b8051610871816115c1565b805162ffffff8116811461087157600080fd5b600080600080600060808688031215611044578081fd5b853561104f816115a9565b9450602086013561105f816115a9565b935060408601359250606086013567ffffffffffffffff80821115611082578283fd5b818801915088601f830112611095578283fd5b8135818111156110a3578384fd5b8960208285010111156110b4578384fd5b9699959850939650602001949392505050565b6000806000606084860312156110db578283fd5b83516110e6816115c1565b602085015160409095015190969495509392505050565b60006020828403121561110e578081fd5b5035919050565b60008060408385031215611127578182fd5b823591506020830135611139816115c1565b809150509250929050565b60008060008060808587031215611159578384fd5b84519350602085015161116b816115c1565b6040860151606090960151949790965092505050565b60008060408385031215611193578182fd5b505080516020909101519092909150565b6000806000606084860312156111b8578283fd5b505081359360208301359350604090920135919050565b6000806000806000806000806000806000806101808d8f0312156111f1578687fd5b8c516bffffffffffffffffffffffff8116811461120c578788fd5b9b5061121a60208e01610ff2565b9a5061122860408e01610ff2565b995061123660608e01610ff2565b985061124460808e0161101a565b975061125260a08e01610ffd565b965061126060c08e01610ffd565b955061126e60e08e0161100f565b94506101008d015193506101208d0151925061128d6101408e0161100f565b915061129c6101608e0161100f565b90509295989b509295989b509295989b565b6001600160a01b03169052565b60020b9052565b62ffffff169052565b90565b6001600160a01b0391909116815260200190565b6001600160a01b0394851681526001600160801b039390931660208401529083166040830152909116606082015260800190565b7fffffffff0000000000000000000000000000000000000000000000000000000091909116815260200190565b60208082526019908201527f496e636f72726563742045544820616d6f756e742073656e7400000000000000604082015260600190565b6020808252601e908201527f4661696c656420746f2073656e642065786365737320455448206261636b0000604082015260600190565b815181526020808301516001600160a01b0316908201526040808301516001600160801b0390811691830191909152606092830151169181019190915260800190565b600060a082019050825182526001600160801b03602084015116602083015260408301516040830152606083015160608301526080830151608083015292915050565b600060c082019050825182526020830151602083015260408301516040830152606083015160608301526080830151608083015260a083015160a083015292915050565b60006101608201905061148f8284516112ae565b60208301516114a160208401826112ae565b5060408301516114b460408401826112c2565b5060608301516114c760608401826112bb565b5060808301516114da60808401826112bb565b5060a083015160a083015260c083015160c083015260e083015160e083015261010080840151818401525061012080840151611518828501826112ae565b505061014092830151919092015290565b6001600160801b0391909116815260200190565b6001600160801b039390931683526020830191909152604082015260600190565b62ffffff91909116815260200190565b90815260200190565b9384526001600160801b039290921660208401526040830152606082015260800190565b918252602082015260400190565b6001600160a01b03811681146115be57600080fd5b50565b6001600160801b03811681146115be57600080fdfea264697066735822122031fbcb4872812eff0696586733999770e8804b807cf34259ed4f33dc02fd8a9364736f6c63430007060033",
  "linkReferences": {},
  "deployedLinkReferences": {}
}