{
  "_format": "hh-sol-artifact-1",
  "contractName": "SwapExamples",
  "sourceName": "contracts/SwapExamples.sol",
  "abi": [
    {
      "inputs": [],
      "name": "DAI",
      "outputs": [
        {
          "internalType": "address",
          "name": "",
          "type": "address"
        }
      ],
      "stateMutability": "view",
      "type": "function"
    },
    {
      "inputs": [],
      "name": "USDC",
      "outputs": [
        {
          "internalType": "address",
          "name": "",
          "type": "address"
        }
      ],
      "stateMutability": "view",
      "type": "function"
    },
    {
      "inputs": [],
      "name": "WETH9",
      "outputs": [
        {
          "internalType": "address",
          "name": "",
          "type": "address"
        }
      ],
      "stateMutability": "view",
      "type": "function"
    },
    {
      "inputs": [
        {
          "internalType": "uint256",
          "name": "amountIn",
          "type": "uint256"
        }
      ],
      "name": "swapExactInputMultihop",
      "outputs": [
        {
          "internalType": "uint256",
          "name": "amountOut",
          "type": "uint256"
        }
      ],
      "stateMutability": "nonpayable",
      "type": "function"
    },
    {
      "inputs": [
        {
          "internalType": "uint256",
          "name": "amountIn",
          "type": "uint256"
        }
      ],
      "name": "swapExactInputSingle",
      "outputs": [
        {
          "internalType": "uint256",
          "name": "amountOut",
          "type": "uint256"
        }
      ],
      "stateMutability": "nonpayable",
      "type": "function"
    },
    {
      "inputs": [
        {
          "internalType": "uint256",
          "name": "amountOut",
          "type": "uint256"
        },
        {
          "internalType": "uint256",
          "name": "amountInMaximum",
          "type": "uint256"
        }
      ],
      "name": "swapExactOutputMultihop",
      "outputs": [
        {
          "internalType": "uint256",
          "name": "amountIn",
          "type": "uint256"
        }
      ],
      "stateMutability": "nonpayable",
      "type": "function"
    },
    {
      "inputs": [
        {
          "internalType": "uint256",
          "name": "amountOut",
          "type": "uint256"
        },
        {
          "internalType": "uint256",
          "name": "amountInMaximum",
          "type": "uint256"
        }
      ],
      "name": "swapExactOutputSingle",
      "outputs": [
        {
          "internalType": "uint256",
          "name": "amountIn",
          "type": "uint256"
        }
      ],
      "stateMutability": "nonpayable",
      "type": "function"
    },
    {
      "inputs": [],
      "name": "swapRouter",
      "outputs": [
        {
          "internalType": "contract ISwapRouter",
          "name": "",
          "type": "address"
        }
      ],
      "stateMutability": "view",
      "type": "function"
    }
  ],
  "bytecode": "0x608060405234801561001057600080fd5b50610e60806100206000396000f3fe608060405234801561001057600080fd5b50600436106100885760003560e01c8063c31c9c071161005b578063c31c9c07146100e6578063c4b69a18146100ee578063e0bab4c414610101578063edd835571461010957610088565b80633b85cf6a1461008d5780634aa4a4fc146100b657806373bd43ad146100cb57806389a30271146100de575b600080fd5b6100a061009b366004610c63565b61011c565b6040516100ad9190610e21565b60405180910390f35b6100be610307565b6040516100ad9190610de5565b6100a06100d9366004610c33565b61031f565b6100be610480565b6100be610498565b6100a06100fc366004610c63565b6104b0565b6100be610669565b6100a0610117366004610c33565b610681565b600061013e73c02aaa39b223fe8d0a0e5c4f27ead9083c756cc23330856107ab565b61017173c02aaa39b223fe8d0a0e5c4f27ead9083c756cc273e592427a0aece92de3edee1f18e0157c0586156484610936565b6040805160a08101909152600090806101d0736b175474e89094c44da98b954eedeac495271d0f606473a0b86991c6218b36c1d19d4a2e9eb0ce3606eb48610bb873c02aaa39b223fe8d0a0e5c4f27ead9083c756cc260c08701610d7b565b60408051601f198184030181529181529082523360208301524282820152606082018790526080909101859052517ff28c049800000000000000000000000000000000000000000000000000000000815290915073e592427a0aece92de3edee1f18e0157c058615649063f28c04989061024e908490600401610df9565b602060405180830381600087803b15801561026857600080fd5b505af115801561027c573d6000803e3d6000fd5b505050506040513d601f19601f820116820180604052508101906102a09190610c4b565b915082821015610300576102de73c02aaa39b223fe8d0a0e5c4f27ead9083c756cc273e592427a0aece92de3edee1f18e0157c058615646000610936565b61030073c02aaa39b223fe8d0a0e5c4f27ead9083c756cc230338587036107ab565b5092915050565b73c02aaa39b223fe8d0a0e5c4f27ead9083c756cc281565b600061034173c02aaa39b223fe8d0a0e5c4f27ead9083c756cc23330856107ab565b61037473c02aaa39b223fe8d0a0e5c4f27ead9083c756cc273e592427a0aece92de3edee1f18e0157c0586156484610936565b604080516101008101825273c02aaa39b223fe8d0a0e5c4f27ead9083c756cc28152736b175474e89094c44da98b954eedeac495271d0f6020820152610bb88183015233606082015242608082015260a08101849052600060c0820181905260e082015290517f414bf38900000000000000000000000000000000000000000000000000000000815273e592427a0aece92de3edee1f18e0157c058615649063414bf38990610427908490600401610e0c565b602060405180830381600087803b15801561044157600080fd5b505af1158015610455573d6000803e3d6000fd5b505050506040513d601f19601f820116820180604052508101906104799190610c4b565b9392505050565b73a0b86991c6218b36c1d19d4a2e9eb0ce3606eb4881565b73e592427a0aece92de3edee1f18e0157c0586156481565b60006104d273c02aaa39b223fe8d0a0e5c4f27ead9083c756cc23330856107ab565b61050573c02aaa39b223fe8d0a0e5c4f27ead9083c756cc273e592427a0aece92de3edee1f18e0157c0586156484610936565b604080516101008101825273c02aaa39b223fe8d0a0e5c4f27ead9083c756cc28152736b175474e89094c44da98b954eedeac495271d0f6020820152610bb88183015233606082015242608082015260a0810185905260c08101849052600060e082015290517fdb3e219800000000000000000000000000000000000000000000000000000000815273e592427a0aece92de3edee1f18e0157c058615649063db3e2198906105b8908490600401610e0c565b602060405180830381600087803b1580156105d257600080fd5b505af11580156105e6573d6000803e3d6000fd5b505050506040513d601f19601f8201168201806040525081019061060a9190610c4b565b9150828210156103005761064873c02aaa39b223fe8d0a0e5c4f27ead9083c756cc273e592427a0aece92de3edee1f18e0157c058615646000610936565b61030073c02aaa39b223fe8d0a0e5c4f27ead9083c756cc233848603610ab8565b736b175474e89094c44da98b954eedeac495271d0f81565b60006106a373c02aaa39b223fe8d0a0e5c4f27ead9083c756cc23330856107ab565b6106d673c02aaa39b223fe8d0a0e5c4f27ead9083c756cc273e592427a0aece92de3edee1f18e0157c0586156484610936565b6040805160a081019091526000908061073573c02aaa39b223fe8d0a0e5c4f27ead9083c756cc2610bb873a0b86991c6218b36c1d19d4a2e9eb0ce3606eb486064736b175474e89094c44da98b954eedeac495271d0f60c08701610d7b565b6040516020818303038152906040528152602001336001600160a01b031681526020014281526020018481526020016000815250905073e592427a0aece92de3edee1f18e0157c058615646001600160a01b031663c04b8d59826040518263ffffffff1660e01b81526004016104279190610df9565b604080516001600160a01b0385811660248301528481166044830152606480830185905283518084039091018152608490920183526020820180516001600160e01b03167f23b872dd00000000000000000000000000000000000000000000000000000000178152925182516000948594938a169392918291908083835b602083106108485780518252601f199092019160209182019101610829565b6001836020036101000a0380198251168184511680821785525050505050509050019150506000604051808303816000865af19150503d80600081146108aa576040519150601f19603f3d011682016040523d82523d6000602084013e6108af565b606091505b50915091508180156108dd5750805115806108dd57508080602001905160208110156108da57600080fd5b50515b61092e576040805162461bcd60e51b815260206004820152600360248201527f5354460000000000000000000000000000000000000000000000000000000000604482015290519081900360640190fd5b505050505050565b604080516001600160a01b038481166024830152604480830185905283518084039091018152606490920183526020820180516001600160e01b03167f095ea7b3000000000000000000000000000000000000000000000000000000001781529251825160009485949389169392918291908083835b602083106109cb5780518252601f1990920191602091820191016109ac565b6001836020036101000a0380198251168184511680821785525050505050509050019150506000604051808303816000865af19150503d8060008114610a2d576040519150601f19603f3d011682016040523d82523d6000602084013e610a32565b606091505b5091509150818015610a60575080511580610a605750808060200190516020811015610a5d57600080fd5b50515b610ab1576040805162461bcd60e51b815260206004820152600260248201527f5341000000000000000000000000000000000000000000000000000000000000604482015290519081900360640190fd5b5050505050565b604080516001600160a01b038481166024830152604480830185905283518084039091018152606490920183526020820180516001600160e01b03167fa9059cbb000000000000000000000000000000000000000000000000000000001781529251825160009485949389169392918291908083835b60208310610b4d5780518252601f199092019160209182019101610b2e565b6001836020036101000a0380198251168184511680821785525050505050509050019150506000604051808303816000865af19150503d8060008114610baf576040519150601f19603f3d011682016040523d82523d6000602084013e610bb4565b606091505b5091509150818015610be2575080511580610be25750808060200190516020811015610bdf57600080fd5b50515b610ab1576040805162461bcd60e51b815260206004820152600260248201527f5354000000000000000000000000000000000000000000000000000000000000604482015290519081900360640190fd5b600060208284031215610c44578081fd5b5035919050565b600060208284031215610c5c578081fd5b5051919050565b60008060408385031215610c75578081fd5b50508035926020909101359150565b6001600160a01b03169052565b6000815160a0845280518060a0860152825b81811015610cc057602081840181015160c0888401015201610ca3565b81811115610cd1578360c083880101525b5060208401519150610ce66020860183610c84565b6040848101519086015260608085015190860152608093840151938501939093525050601f01601f19160160c00190565b6001600160a01b0380825116835280602083015116602084015262ffffff60408301511660408401528060608301511660608401526080820151608084015260a082015160a084015260c082015160c08401528060e08301511660e0840152505050565b6bffffffffffffffffffffffff19606096871b811682527fffffff000000000000000000000000000000000000000000000000000000000060e896871b8116601484015294871b811660178301529290941b909216602b840152921b909116602e82015260420190565b6001600160a01b0391909116815260200190565b6000602082526104796020830184610c91565b6101008101610e1b8284610d17565b92915050565b9081526020019056fea26469706673582212205002adc9a71a17c9c9e1ac7c30d0dad93a8cd9a9ccbd1a6b26531ee544662be164736f6c63430007060033",
  "linkReferences": {},
  "deployedLinkReferences": {}
}