{
  "_format": "hh-sol-artifact-1",
  "contractName": "UserStorageData",
  "sourceName": "contracts/UserStorageData.sol",
  "abi": [
    {
      "inputs": [
        {
          "internalType": "address",
          "name": "poolAddress",
          "type": "address"
        },
        {
          "internalType": "address",
          "name": "tokenAddress0",
          "type": "address"
        },
        {
          "internalType": "address",
          "name": "tokenAddress1",
          "type": "address"
        }
      ],
      "name": "addToBlockchain",
      "outputs": [],
      "stateMutability": "nonpayable",
      "type": "function"
    },
    {
      "inputs": [],
      "name": "getAllTransactions",
      "outputs": [
        {
          "components": [
            {
              "internalType": "address",
              "name": "caller",
              "type": "address"
            },
            {
              "internalType": "address",
              "name": "poolAddress",
              "type": "address"
            },
            {
              "internalType": "address",
              "name": "tokenAddress0",
              "type": "address"
            },
            {
              "internalType": "address",
              "name": "tokenAddress1",
              "type": "address"
            }
          ],
          "internalType": "struct UserStorageData.TransactionStruck[]",
          "name": "",
          "type": "tuple[]"
        }
      ],
      "stateMutability": "view",
      "type": "function"
    },
    {
      "inputs": [
        {
          "internalType": "uint256",
          "name": "",
          "type": "uint256"
        }
      ],
      "name": "transactions",
      "outputs": [
        {
          "internalType": "address",
          "name": "caller",
          "type": "address"
        },
        {
          "internalType": "address",
          "name": "poolAddress",
          "type": "address"
        },
        {
          "internalType": "address",
          "name": "tokenAddress0",
          "type": "address"
        },
        {
          "internalType": "address",
          "name": "tokenAddress1",
          "type": "address"
        }
      ],
      "stateMutability": "view",
      "type": "function"
    }
  ],
  "bytecode": "0x608060405234801561001057600080fd5b506103f1806100206000396000f3fe608060405234801561001057600080fd5b50600436106100415760003560e01c806327506f5314610046578063890cb4e9146100645780639ace38c214610079575b600080fd5b61004e61009c565b60405161005b9190610347565b60405180910390f35b6100776100723660046102c2565b61012f565b005b61008c610087366004610304565b61025c565b60405161005b949392919061031c565b60606000805480602002602001604051908101604052809291908181526020016000905b82821015610126576000848152602090819020604080516080810182526004860290920180546001600160a01b039081168452600180830154821685870152600283015482169385019390935260039091015416606083015290835290920191016100c0565b50505050905090565b604080516080810182523381526001600160a01b03948516602082019081529385169181019182529184166060830190815260008054600181018255908052925160049093027f290decd9548b62a8d60345a988386fc84ba6bc95484008f6362f93160ef3e563810180549487167fffffffffffffffffffffffff000000000000000000000000000000000000000095861617905593517f290decd9548b62a8d60345a988386fc84ba6bc95484008f6362f93160ef3e5648501805491871691851691909117905590517f290decd9548b62a8d60345a988386fc84ba6bc95484008f6362f93160ef3e56584018054918616918416919091179055517f290decd9548b62a8d60345a988386fc84ba6bc95484008f6362f93160ef3e5669092018054929093169116179055565b6000818154811061026c57600080fd5b600091825260209091206004909102018054600182015460028301546003909301546001600160a01b039283169450908216928216911684565b80356001600160a01b03811681146102bd57600080fd5b919050565b6000806000606084860312156102d6578283fd5b6102df846102a6565b92506102ed602085016102a6565b91506102fb604085016102a6565b90509250925092565b600060208284031215610315578081fd5b5035919050565b6001600160a01b03948516815292841660208401529083166040830152909116606082015260800190565b602080825282518282018190526000919060409081850190868401855b828110156103ae57815180516001600160a01b0390811686528782015181168887015286820151811687870152606091820151169085015260809093019290850190600101610364565b509197965050505050505056fea2646970667358221220b3b089be909b47f17db08416940fb2c8081963bc213c7f6b1fa17241f07c821f64736f6c63430007060033",
  "linkReferences": {},
  "deployedLinkReferences": {}
}